:020000040000FA
:0600000000F0CDEF03F05B
:070600000044697073000063
:10060800FFFF000E096E000E0A6E000E0B6E000E44
:100618000C6E0550061007100810D8B42ED0010E25
:100628000D6E07D0FFFFD890053606360736083618
:100638000D2AFFFF08AEF6D7FFFFD89009360A3615
:100648000B360C360550015C06500258075003580B
:1006580008500458D8A009D00550015E0650025A27
:100668000750035A0850045A0980FFFFD8900832EF
:100678000732063205320D2EDFD7FFFF09C001F021
:100688000AC002F00BC003F00CC004F01200FFFF18
:10069800FFFFAB8E949C948E240EAC12AC98AB8E5C
:1006A800000E016E120E026E7A0E036E000E046EBC
:1006B8000EC010F00FC011F0000E11BEFF0E126E2A
:1006C800136E040EFFFFD89010361136123613360B
:1006D800E82EF8D710C005F011C006F012C007F0D8
:1006E80013C008F004EC03F00104AF6E1200FFFF22
:1006F800FFFF250E0F6E800E0E6E4CEC03F0FFFF11
:10070800410ED4EC03F0010E1A6EC30E196EED0EF5
:10071800FFFFE82EFDD7192EFBD71A2EF9D7010EA9
:10072800016E060E026EA6EC03F0080E1A6E9E0EFF
:10073800196E4C0EFFFFE82EFDD7192EFBD71A2E87
:10074800F9D7DDD7FFFF17D0FFFF01C0F6FF02C0C2
:10075800F7FF0800FFFFF5CFADFF010E046EC30ED3
:10076800036EED0EFFFFE82EFDD7032EFBD7042EF8
:10077800F9D7014A022AFFFF01C0F6FF02C0F7FFBE
:100788000800FFFFF5500009D8B41200FFFFDCD7BE
:10079800FFFF000EF86E060EF76E00017CEF03F007
:0E07A800FFFF016E01C0ADFF1200FFFFFFFF5B
:020000040020DA
:08000000FFFFFFFFFFFFFFFF00
:020000040030CA
:0E000000FF220F0EFF0185FF0FC00FE00F4023
:00000001FF
