:020000040000FA
:0600000000F066EF1FF0A6
:103ECA00FFFF00016FEF1FF0FFFF016E01C0ADFFA2
:103EDA001200FFFFFFFF250E0F6E800E0E6E87EC9D
:103EEA001FF0FFFF410E69EC1FF0010E1A6EC30EA0
:103EFA00196EED0EFFFFE82EFDD7192EFBD71A2EED
:103F0A00F9D7EFD7FFFFAB8E949C948E240EAC1298
:103F1A00AC98AB8E000E016E120E026E7A0E036E14
:103F2A00000E046E0EC010F00FC011F0000E11BE8C
:103F3A00FF0E126E136E040EFFFFD8901036113664
:103F4A0012361336E82EF8D710C005F011C006F065
:103F5A0012C007F013C008F0B7EC1FF00104AF6EEF
:103F6A001200FFFFFFFF000E096E000E0A6E000E20
:103F7A000B6E000E0C6E0550061007100810D8B410
:103F8A002ED0010E0D6E07D0FFFFD89005360636EB
:103F9A00073608360D2AFFFF08AEF6D7FFFFD8907E
:103FAA0009360A360B360C360550015C06500258A3
:103FBA000750035808500458D8A009D00550015E8C
:103FCA000650025A0750035A0850045A0980FFFF44
:103FDA00D89008320732063205320D2EDFD7FFFF9E
:103FEA0009C001F00AC002F00BC003F00CC004F0D3
:063FFA001200FFFFFFFFB3
:020000040020DA
:08000000FFFFFFFFFFFFFFFF00
:020000040030CA
:0E000000FF220F0EFF0185FF0FC00FE00F4023
:00000001FF
