:020000040000FA
:0600000000F015EF00F016
:08000800FFFF7E82FCEF1FF0F8
:10001800FFFF7E80E0CF01F001C0E0FF7E9010007E
:10002800FFFFC3EF3FF0FFFF0A6E0A50D8A405AEEA
:100038001AD002C006F003C007F004C008F005C0DB
:1000480009F0061E071E081E091E062A000E0722B2
:100058000822092206C00CF007C00DF008C00EF0F7
:1000680009C00FF009D0FFFF02C00CF003C00DF06B
:1000780004C00EF005C00FF0FFFF0250031004107B
:100088000510D8A409D0000E026E000E036E000EF3
:10009800046E000E056E72D0FFFF960E0B6E07D031
:1000A800FFFF0B2AD8900F320E320D320C32FFFFB1
:1000B800000E0C14066E000E0D14076E000E0E14C2
:1000C800086EFE0E0F14096E06500710081009106E
:1000D800D8B40ED0E5D7FFFF0B2A010E0C26000E70
:1000E8000D220E220F22D8900F320E320D320C3212
:1000F800FFFF000E0C14066E000E0D14076E000EA6
:100108000E14086EFF0E0F14096E06500710081023
:100118000910D8B408D0DFD7FFFF0B06D8900C36EB
:100128000D360E360F36FFFF0EBE03D0020E0B60E3
:10013800F3D7FFFF0BA00E9ED8900B320BC006F032
:10014800076A086A096A06C009F0086A076A066A3F
:1001580006500C1207500D1208500E1209500F12BB
:100168000A50D8A405AE01D00F8EFFFF0CC002F0D4
:100178000DC003F00EC004F00FC005F0FFFF120021
:10018800FFFFFFFF250E106E800E0F6E5FEC02F072
:10019800B7EC3FF0040E7D6ECF0E7C6EA50EFFFF10
:1001A800E82EFDD77C2EFBD77D2EF9D700D0FFFF98
:1001B800000E8FEC02F002C0C0F003C0C1F0900E38
:1001C800166E3E0E176EFA0E186E3E0E196EC0C0F1
:1001D80002F0C1C003F0046A056A000E17EC00F0D3
:1001E80002C012F003C013F004C014F005C015F0EB
:1001F800B9EC18F012C072F013C073F014C074F0A8
:1002080015C075F0ADEC01F072C0BEF073C0BFF060
:100218007D0E026E060E036EB1EC02F0C0C0A8F0AF
:10022800C1C0A9F0040E0001AA6F1CEC1CF00D0E51
:10023800AEEC3FF0860E026E060E036EB1EC02F0D5
:10024800BEC0A8F0BFC0A9F0040E0001AA6F1CEC44
:100258001CF00D0EAEEC3FF0080E7D6E9E0E7C6E0F
:100268004C0EFFFFE82EFDD77C2EFBD77D2EF9D74D
:100278009ED7FFFF000E4C14546E000E4D14556EA1
:10028800800E4E14566E7F0E4F14576E54505510F4
:1002980056105710D8A408D0000E4C6E000E4D6EA4
:1002A800000E4E6E000E4F6EFFFF000E5014546E7F
:1002B800000E5114556E800E5214566E7F0E531454
:1002C800576E5450551056105710D8A408D0000E29
:1002D800506E000E516E000E526E000E536EFFFFF0
:1002E8004FAE09D04C6C4D1ED8B04D2A4E1ED8B01A
:1002F8004E2A800E4F56FFFF53AE09D0506C511E48
:10030800D8B0512A521ED8B0522A800E5356FFFF39
:10031800000E4C1A000E4D1A000E4E1A800E4F1A7F
:10032800000E501A000E511A000E521A800E531A5F
:1003380050504C5C51504D5852504E5853504F5895
:10034800D8B002D0D89002D0FFFFD880FFFF1200AB
:10035800FFFFFFFF743475347B6E7B50D8A40AD03E
:10036800FFFF000E726E000E736E000E746E000EAC
:10037800756E56D0FFFF72C076F073C077F074C008
:1003880078F075C079F0200E06D0FFFFD89079324A
:10039800783277327632FFFFE82EF7D776507A6ECA
:1003A800748EFF0E7216FF0E7316FF0E7416000E73
:1003B8007516960E7B5E7BAE0ED07B50800A970F2B
:1003C800D8A0CED7FFFFD89075327432733272320C
:1003D8007B3EF8D710D0FFFF1F0E7B6408D0C0D734
:1003E800FFFFD89072367336743675367B06FFFF7A
:1003F8007B50D8A4F5D7FFFF7A50D8B408D0751E23
:10040800741E731E726C000E732274227522FFFF15
:1004180072C072F073C073F074C074F075C075F078
:10042800FFFF1200FFFFFFFF000E0A6E000E0B6EAB
:10043800000E0C6E000E0D6E065007100810091005
:10044800D8B42ED0010E0E6E07D0FFFFD890063616
:100458000736083609360E2AFFFF09AEF6D7FFFF22
:10046800D8900A360B360C360D360650025C07500B
:1004780003580850045809500558D8A009D0065008
:10048800025E0750035A0850045A0950055A0A8058
:10049800FFFFD89009320832073206320E2EDFD716
:1004A800FFFF0AC002F00BC003F00CC004F00DC03F
:1004B80005F01200FFFFFFFFAB8E949C948E240E74
:1004C800AC12AC98AB8E000E026E120E036E7A0E52
:1004D800046E000E056E0FC011F010C012F0000E71
:1004E80012BEFF0E136E146E040EFFFFD890113665
:1004F800123613361436E82EF8D711C006F012C09B
:1005080007F013C008F014C009F017EC02F0020459
:10051800AF6E1200FFFFFFFF096EC2CF0AF0C70ED1
:100528000A160938E842F80B0A120AC0C2FFC28448
:10053800FFFFC2B4FDD7C4CF04F0070E0416045061
:10054800066E056AC3500510076E0650086E07C090
:1005580002F008C003F01200FFFFFFFF0DD0FFFFFD
:10056800ACA2FDD702C0F6FF03C0F7FF0800FFFFEB
:10057800F5CFADFF024A032AFFFF02C0F6FF03C012
:10058800F7FF0800FFFFF5500009D8B41200FFFF7D
:10059800E6D7FFFFFFFFC2C006F0C3C007F0C4C024
:1005A80008F0C5C009F002C006F003C007F004C097
:1005B80008F005C009F0099E06C002F007C003F064
:1005C80008C004F009C005F01200FFFFFFFF025049
:1005D8000402F3CF06F0F4CF07F002500502F350FF
:1005E800072603500402F350072606C002F007C08E
:1005F80003F01200FFFFFFFF0000000000DCCFD176
:10060800350000000000C0153F6042A20D70A5EC47
:10061800363BAAB83F4F38763F3CAA38338CBEBF2A
:10062800350072313F1872313F4CBB31330EEADD71
:10063800B555B38A38610B36BBABAA2A3E42F15393
:100648003E55326C3E05A38B3EABAAAA3EB76DDB86
:100658003E9A99193F6042A20DCAF2497100008082
:100668004B0000803F0000C03F00AAB83FC623F6F9
:10067800B80040763F4144432056414C3D00544524
:050688004D503D000093
:10068E00FFFF61C0B8F162C0B9F163C0BAF164C0D6
:10069E00BBF1B8C160F1B9C161F1BAC162F1BBC1C0
:1006AE0063F165C0B8F166C0B9F167C0BAF168C050
:1006BE00BBF1B8C184F1B9C185F1BAC186F1BBC134
:1006CE0087F1FF0E01016015A86FFF0E6115A96F6E
:1006DE00FF0E6215AA6F7F0E6315AB6FFF0E8415AA
:1006EE00986FFF0E8515996FFF0E86159A6F7F0E08
:1006FE0087159B6F985199119A119B11D8B4F5D00B
:10070E00800E621906E13F0E631960116111D8B4B3
:10071E00ECD0ABBF09D0A805000EA959800EAA597E
:10072E007F0EAB59D8B00CD0FFFF9BBF26D09805DB
:10073E00000E9959800E9A597F0E9B59D8A01DD044
:10074E00FFFF61C002F062C003F063C004F064C03A
:10075E0005F065C006F066C007F067C008F068C017
:10076E0009F07AEC1AF002C061F003C062F004C026
:10077E0063F005C064F089EF16F0FFFF000E506FB6
:10078E00000E516F000E526F000E536F63AF9AD072
:10079E009BBF0ED0800E9A5D4B0E9B59D8A008D0F1
:1007AE00020E506F000E516F000E526F000E88D069
:1007BE00FFFF9BBF87D0800E9A5D3F0E9B59D8A03E
:1007CE0081D0170E696E98C16AF099C16BF09AC10B
:1007DE006CF09BC16DF0FFFF696601D008D0FFFF82
:1007EE006D346D326C326B326A32692EF4D7FFFF84
:1007FE00810E6A240101A06FFF0E6B20A16FFF0E08
:10080E006C20A26FFF0E6D20A36FA0511708696EAA
:10081E0098C16AF099C16BF09AC16CF09BC16DF0F2
:10082E00FFFF696601D008D0FFFF6D346D326C3268
:10083E006B326A32692EF4D7FFFF6AC0ACF16BC01F
:10084E00ADF16CC0AEF16DC0AFF10101A051170852
:10085E00696EACC16AF0ADC16BF0AEC16CF0AFC1E8
:10086E006DF0692A06D0FFFFD8906A366B366C366B
:10087E006D36FFFF692EF7D798516A1823E199510B
:10088E006B1820E19A516C181DE19B516D18D8A47C
:10089E0019D0010EAC15696E000EAD156A6E000E04
:1008AE00AE156B6E000EAF156C6E69500208506F70
:1008BE00000E6A54516F000E6B54526F000E6C5442
:1008CE00FFFF536FFFFF800E9A1956E17F0E9B19A3
:1008DE0098119911D8A450D0800EAA190FE13F0E8D
:1008EE00AB19A811A911D8A409D0FFFF000E616E93
:1008FE00000E626E800E636E3F0E0FD0FFFFABBF19
:10090E001BD0A805000EA959800EAA593F0EAB594F
:10091E00D8A012D087BF27D004D0FFFF646E89EF16
:10092E0016F0FFFF65C061F066C062F067C063F04D
:10093E0068C064F089EF16F0FFFF87AF14D065C072
:10094E0002F066C003F067C004F068C005F0E6EC84
:10095E003FF002C061F003C062F004C063F005C056
:10096E0064F089EF16F0FFFF000E616E000E626EEE
:10097E00000E636E000ED1D7FFFF800E9A1926E18E
:10098E003F0E9B1998119911D8A420D087AF13D080
:10099E00000E336E000E346E800E356E3F0E366EC8
:1009AE0061C037F062C038F063C039F064C03AF00D
:1009BE007EEC1DF061D1FFFF61C061F062C062F09C
:1009CE0063C063F064C064F089EF16F0FFFF400E61
:1009DE008719841185118611D8A414D061C012F024
:1009EE0062C013F063C014F064C015F061C016F05D
:1009FE0062C017F063C018F064C019F0B9EC18F0BB
:100A0E0080EF16F0FFFF3F0E8719841185118611B6
:100A1E00D8B463BF14D061C058F062C059F063C03F
:100A2E005AF064C05BF08CEC16F058C061F059C0FF
:100A3E0062F05AC063F05BC064F089EF16F0FFFFFE
:100A4E0061C002F062C003F063C004F064C005F040
:100A5E00CEEC02F002C070F103C071F104C072F16D
:100A6E0005C073F1800E0101AA1906E17F0EAB19C4
:100A7E00A811A911D8B40FD0A851A911AA11AB1160
:100A8E00D8B409D0800EAA1905E13F0EAB19A811F2
:100A9E00A911D8A4AAD0FFFF70C1B4F171C1B5F1EC
:100AAE0072C1B6F173C1B7F187AF1AD0000E336EB3
:100ABE00000E346E800E356E3F0E366EB4C137F0BA
:100ACE00B5C138F0B6C139F0B7C13AF07EEC1DF0C1
:100ADE0033C0B4F134C0B5F135C0B6F136C0B7F19C
:100AEE00FFFF010163AF76D0000EA825696E000EE0
:100AFE00A9216A6E800EAA216B6EC00EAB216C6EA0
:100B0E00505169106D6E51516A106E6E52516B10CC
:100B1E006F6E53516C10706E6D506E106F107010B2
:100B2E00D8A43FD0B4C12FF0B5C130F0B6C131F06A
:100B3E00B7C132F0B4C12BF0B5C12CF0B6C12DF057
:100B4E00B7C12EF0D7EC1FF02BC033F02CC034F011
:100B5E002DC035F02EC036F0B4C12FF0B5C130F037
:100B6E00B6C131F0B7C132F0B4C12BF0B5C12CF023
:100B7E00B6C12DF0B7C12EF0D7EC1FF02BC037F059
:100B8E002CC038F02DC039F02EC03AF07EEC1DF09E
:100B9E0033C0B4F134C0B5F135C0B6F136C0B7F1DB
:100BAE0019D0FFFF5005511152115311D8A412D074
:100BBE00B4C102F0B5C103F0B6C104F0B7C105F07F
:100BCE00E6EC3FF002C0B4F103C0B5F104C0B6F1DB
:100BDE0005C0B7F1FFFFB4C161F0B5C162F0B6C197
:100BEE0063F0B7C164F089EF16F0FFFF000E886F57
:100BFE00000E896F800E8A6F3F0E8B6F63AF56D0DB
:100C0E005051511152115311D8A441D061C02FF03F
:100C1E0062C030F063C031F064C032F061C02BF0BE
:100C2E0062C02CF063C02DF064C02EF0D7EC1FF024
:100C3E002BC033F02CC034F02DC035F02EC036F062
:100C4E0061C02FF062C030F063C031F064C032F08A
:100C5E0061C02BF062C02CF063C02DF064C02EF08A
:100C6E00D7EC1FF02BC037F02CC038F02DC039F068
:100C7E002EC03AF07EEC1DF0FFFF33C061F034C0A1
:100C8E0062F035C063F036C064F089EF16F0FFFFF6
:100C9E005005511152115311D8A408D0000E886F6F
:100CAE00000E896F800E8A6FBF0E8B6FFFFF9BBF8A
:100CBE0055D29805000E9959000E9A594D0E9B5912
:100CCE00D8A04CD2ABBF0AD0F80EA85DFF0EA95922
:100CDE007F0EAA593F0EAB59D8B060D0FFFF87BF29
:100CEE002ED0600E166E420E176EA20E186E0D0EE0
:100CFE00196E88C112F089C113F08AC114F08BC12C
:100D0E0015F0B9EC18F012C0A4F113C0A5F114C07F
:100D1E00A6F115C0A7F1A4C112F0A5C113F0A6C18A
:100D2E0014F0A7C115F0600E166E420E176EA20ECD
:100D3E00186E0D0E196EB9EC18F080EF16F0FFFF5D
:100D4E00CA0E166EF20E176E490E186E710E196ED1
:100D5E0088C112F089C113F08AC114F08BC115F04D
:100D6E00B9EC18F012C0A4F113C0A5F114C0A6F18D
:100D7E0015C0A7F1A4C112F0A5C113F0A6C114F0BD
:100D8E00A7C115F0CA0E166EF20E176E490E186E2A
:100D9E00710E196EB9EC18F080EF16F0FFFFABBFB5
:100DAE0071D0080EA85D000EA959800EAA593F0EEB
:100DBE00AB59D8A067D087BF07D087518611851150
:100DCE0032E18405D8B02FD0FFFF600E166E420EB2
:100DDE00176EA20E186E0D0E196E88C112F089C113
:100DEE0013F08AC114F08BC115F0B9EC18F012C0D3
:100DFE00A4F113C0A5F114C0A6F115C0A7F1A4C1AA
:100E0E0012F0A5C113F0A6C114F0A7C115F0600E23
:100E1E00166E420E176EA20E186E0D0E196EB9ECEE
:100E2E0018F080EF16F0FFFFCA0E166EF20E176E58
:100E3E00490E186E710E196E88C112F089C113F029
:100E4E008AC114F08BC115F0B9EC18F012C0A4F1E0
:100E5E0013C0A5F114C0A6F115C0A7F1A4C112F0DC
:100E6E00A5C113F0A6C114F0A7C115F0CA0E166ED7
:100E7E00F20E176E490E186E710E196EB9EC18F04F
:100E8E0080EF16F0FFFF70C102F071C103F072C166
:100E9E0004F073C105F0000E066E000E076E800E94
:100EAE00086EBF0E096E7AEC1AF002C0B0F103C0E4
:100EBE00B1F104C0B2F105C0B3F1000E166E000E12
:100ECE00176E800E186E3E0E196EB0C112F0B1C1C3
:100EDE0013F0B2C114F0B3C115F0B9EC18F012C092
:100EEE002FF013C030F014C031F015C032F0AB0E3D
:100EFE002B6EAA0E2C6EAA0E2D6E3E0E2E6ED7ECFB
:100F0E001FF02BC0A4F12CC0A5F12DC0A6F12EC050
:100F1E00A7F1B0C116F0B1C117F0B2C118F0B3C14C
:100F2E0019F0B0C112F0B1C113F0B2C114F0B3C1D7
:100F3E0015F0B9EC18F012C054F113C055F114C0ED
:100F4E0056F115C057F1B0C116F0B1C117F0B2C1CC
:100F5E0018F0B3C119F0A4C112F0A5C113F0A6C1C7
:100F6E0014F0A7C115F0B9EC18F012C02FF013C091
:100F7E0030F014C031F015C032F0000E2B6E000EA2
:100F8E002C6E000E2D6E3F0E2E6ED7EC1FF02BC06A
:100F9E0048F12CC049F12DC04AF12EC04BF154C17D
:100FAE0012F055C113F056C114F057C115F048C1D7
:100FBE0016F049C117F04AC118F04BC119F0B9EC3F
:100FCE0018F012C044F113C045F114C046F115C01B
:100FDE0047F1B0C112F0B1C113F0B2C114F0B3C1F8
:100FEE0015F0000E166EAA0E176EB80E186E3F0E86
:100FFE00196EB9EC18F012C074F113C075F114C06B
:10100E0076F115C077F1700E166EA50E176EEC0EFA
:10101E00186E360E196EB0C112F0B1C113F0B2C116
:10102E0014F0B3C115F0B9EC18F012C02BF013C0C8
:10103E002CF014C02DF015C02EF03B0E166EAA0E1D
:10104E00176EB80E186E3F0E196E44C112F045C1E0
:10105E0013F046C114F047C115F0B9EC18F012C0E8
:10106E002FF013C030F014C031F015C032F0D7ECB1
:10107E001FF02BC078F12CC079F12DC07AF12EC063
:10108E007BF174C102F075C103F076C104F077C133
:10109E0005F078C106F079C107F07AC108F07BC17E
:1010AE0009F07AEC1AF002C080F103C081F104C09D
:1010BE0082F105C083F180C1B8F181C1B9F182C15D
:1010CE00BAF183C1BBF1B8C190F1B9C191F1BAC106
:1010DE0092F1BBC193F1000E01019015B86FF00EA5
:1010EE009115B96FFF0E9215BA6FFF0E9315BB6F68
:1010FE00B8C180F1B9C181F1BAC182F1BBC183F12E
:10110E0074C12FF075C130F076C131F077C132F075
:10111E0080C12BF081C12CF082C12DF083C12EF045
:10112E00D7EC1FF02BC094F12CC095F12DC096F189
:10113E002EC097F178C12BF079C12CF07AC12DF029
:10114E007BC12EF094C12FF095C130F096C131F0D5
:10115E0097C132F0D7EC1FF0FBEF0FF0FFFF000E40
:10116E007C6F000E7D6F000E7E6F000E7F6FABBF2B
:10117E0006D0AB5138E1800EAA5DD8B034D0FFFF57
:10118E0070C112F071C113F072C114F073C115F079
:10119E00000E166E000E176E800E186E4B0E196E28
:1011AE00B9EC18F012C070F113C071F114C072F1E5
:1011BE0015C073F1E80E01017C27FF0E7D23FF0E93
:1011CE007E23FF0E7F2370C1B8F171C1B9F172C1D8
:1011DE00BAF173C1BBF1B8C1A8F1B9C1A9F1BAC1D5
:1011EE00AAF1BBC1ABF1FFFF170E696EA8C16AF081
:1011FE00A9C16BF0AAC16CF0ABC16DF0FFFF6966BF
:10120E0001D008D0FFFF6D346D326C326B326A3212
:10121E00692EF4D7FFFF810E6A246E6EFF0E6B20CF
:10122E006F6EFF0E6C20706EFF0E6D20716E6E5025
:10123E0001017C276F507D2370507E2371507F23D8
:10124E00FF0EA815AC6FFF0EA915AD6F7F0EAA1578
:10125E00AE6F000EAB15AF6F000EAC11A86F000E87
:10126E00AD11A96F800EAE11AA6F3F0EAF11AB6F0D
:10127E00AFBF0AD0AF510BE1720EAC5DC40EAD59CB
:10128E001C0EAE59D8B003D0FFFF000E0FD0FFFFDB
:10129E00AFBF0AD0AF5113E1D70EAC5DB30EAD594F
:1012AE005D0EAE59D8B00BD0FFFF010EFFFFA06F41
:1012BE00000EA16F000EA26F000EA36F17D0FFFFDE
:1012CE00000EA06F000EA16F000EA26F000EA36F96
:1012DE00010E7C27000E7D237E237F23000EA82780
:1012EE00000EA923800EAA23FF0EAB23FFFFA8C179
:1012FE00B8F1A9C1B9F1AAC1BAF1ABC1BBF1B8C17C
:10130E0070F1B9C171F1BAC172F1BBC173F170C1A3
:10131E002BF071C12CF072C12DF073C12EF0A0C153
:10132E0069F0A1C16AF0D89069366A36D8906936EC
:10133E006A36690E6924F66E060E6A20F76E09008B
:10134E00FFFFF5CF2FF00900FFFFF5CF30F00900BA
:10135E00FFFFF5CF31F00A00FFFFF5CF32F0D7ECEB
:10136E001FF02BC074F12CC075F12DC076F12EC07C
:10137E0077F1000E336E000E346E800E356E3F0E1A
:10138E00366E70C106F071C107F072C108F073C1FC
:10139E0009F0A0C169F0A1C16AF0D89069366A3629
:1013AE00D89069366A36690E6924F66E060E6A2082
:1013BE00F76E0900FFFFF5CF02F00900FFFFF5CF32
:1013CE0003F00900FFFFF5CF04F00A00FFFFF5CF91
:1013DE0005F07AEC1AF002C037F003C038F004C002
:1013EE0039F005C03AF07EEC1DF033C078F134C010
:1013FE0079F135C07AF136C07BF174C112F075C146
:10140E0013F076C114F077C115F078C116F079C1DA
:10141E0017F07AC118F07BC119F0B9EC18F012C0B0
:10142E005CF113C05DF114C05EF115C05FF15CC1DB
:10143E006CF15DC16DF15EC16EF15FC16FF16CC19A
:10144E00B8F16DC1B9F16EC1BAF16FC1BBF1B8C1DE
:10145E0090F1B9C191F1BAC192F1BBC193F1000EF5
:10146E0001019015B86FF00E9115B96FFF0E921520
:10147E00BA6FFF0E9315BB6FB8C16CF1B9C16DF1A8
:10148E00BAC16EF1BBC16FF1A8C169F0A9C16AF012
:10149E00AAC16BF0ABC16CF06C346C326B326A3239
:1014AE006932000E69146D6EF00E6A146E6EFF0EC8
:1014BE006B146F6EFF0E6C14706E000E6D10906FCD
:1014CE00000E6E10916F000E6F10926F200E701046
:1014DE00936FA0C169F0A1C16AF0A2C16BF0A3C164
:1014EE006CF0150EFFFFD89069366A366B366C3687
:1014FE00E82EF8D7905169246D6E91516A206E6E68
:10150E0092516B206F6E93516C20706E000E6D2495
:10151E00B86F000E6E20B96F400E6F20BA6F000EBE
:10152E007020BB6FB8C168F1B9C169F1BAC16AF177
:10153E00BBC16BF1A0C169F0A1C16AF0D890693648
:10154E006A36D89069366A36690E6924F66E060ECA
:10155E006A20F76E0900FFFFF5CF2FF00900FFFF9D
:10156E00F5CF30F00900FFFFF5CF31F00A00FFFF95
:10157E00F5CF32F068C12BF069C12CF06AC12DF0A5
:10158E006BC12EF0D7EC1FF02BC094F12CC095F14F
:10159E002DC096F12EC097F170C12BF071C12CF0B9
:1015AE0072C12DF073C12EF094C12FF095C130F0A1
:1015BE0096C131F097C132F0D7EC1FF02BC034F149
:1015CE002CC035F12DC036F12EC037F168C116F0A2
:1015DE0069C117F06AC118F06BC119F06CC112F035
:1015EE006DC113F06EC114F06FC115F0B9EC18F0A7
:1015FE0012C02FF013C030F014C031F015C032F00D
:10160E0074C12BF075C12CF076C12DF077C12EF080
:10161E00D7EC1FF02BC094F12CC095F12DC096F194
:10162E002EC097F134C116F035C117F036C118F03F
:10163E0037C119F06CC112F06DC113F06EC114F008
:10164E006FC115F0B9EC18F012C02FF013C030F0C6
:10165E0014C031F015C032F094C12BF095C12CF0AE
:10166E0096C12DF097C12EF0D7EC1FF02BC054F180
:10167E002CC055F12DC056F12EC057F154C112F0A9
:10168E0055C113F056C114F057C115F078C116F0BC
:10169E0079C117F07AC118F07BC119F0B9EC18F0C6
:1016AE0012C030F113C031F114C032F115C033F154
:1016BE005CC112F05DC113F05EC114F05FC115F094
:1016CE005CC116F05DC117F05EC118F05FC119F074
:1016DE00B9EC18F012C08CF113C08DF114C08EF15C
:1016EE0015C08FF1550E066E320E076E6C0E086E1B
:1016FE003E0E096E420E166EF10E176E530E186EDA
:10170E003E0E196E8CC112F08DC113F08EC114F005
:10171E008FC115F0B9EC18F012C002F013C003F02F
:10172E0014C004F015C005F07AEC1AF002C0A4F152
:10173E0003C0A5F104C0A6F105C0A7F1050E066E03
:10174E00A30E076E8B0E086E3E0E096E8CC116F040
:10175E008DC117F08EC118F08FC119F0A4C112F00F
:10176E00A5C113F0A6C114F0A7C115F0B9EC18F07D
:10177E0012C002F013C003F014C004F015C005F03F
:10178E007AEC1AF002C054F103C055F104C056F1C0
:10179E0005C057F1AB0E066EAA0E076EAA0E086EA6
:1017AE003E0E096E8CC116F08DC117F08EC118F069
:1017BE008FC119F054C112F055C113F056C114F077
:1017CE0057C115F0B9EC18F012C002F013C003F0B7
:1017DE0014C004F015C005F07AEC1AF002C048F1FE
:1017EE0003C049F104C04AF105C04BF1B70E066EB5
:1017FE006D0E076EDB0E086E3E0E096E8CC116F076
:10180E008DC117F08EC118F08FC119F048C112F0BA
:10181E0049C113F04AC114F04BC115F0B9EC18F0E0
:10182E0012C002F013C003F014C004F015C005F08E
:10183E007AEC1AF002C038F103C039F104C03AF163
:10184E0005C03BF19A0E066E990E076E190E086EC4
:10185E003F0E096E8CC116F08DC117F08EC118F0B7
:10186E008FC119F038C112F039C113F03AC114F01A
:10187E003BC115F0B9EC18F012C002F013C003F022
:10188E0014C004F015C005F07AEC1AF002C000F195
:10189E0003C001F104C002F105C003F18CC116F0C2
:1018AE008DC117F08EC118F08FC119F08CC112F0D6
:1018BE008DC113F08EC114F08FC115F0B9EC18F074
:1018CE0012C004F113C005F114C006F115C007F1E2
:1018DE0000C112F001C113F002C114F003C115F0E2
:1018EE0004C116F005C117F006C118F007C119F0B2
:1018FE00B9EC18F012C04CF113C04DF114C04EF1FA
:10190E0015C04FF130C116F031C117F032C118F0C9
:10191E0033C119F05CC106F05DC107F05EC108F07D
:10192E005FC109F06CC102F06DC103F06EC104F02D
:10193E006FC105F07AEC1AF002C012F003C013F07A
:10194E0004C014F005C015F0B9EC18F012C058F12F
:10195E0013C059F114C05AF115C05BF14CC102F01D
:10196E004DC103F04EC104F04FC105F058C106F051
:10197E0059C107F05AC108F05BC109F07AEC1AF0B0
:10198E0002C04CF103C04DF104C04EF105C04FF141
:10199E006CC112F06DC113F06EC114F06FC115F071
:1019AE006CC116F06DC117F06EC118F06FC119F051
:1019BE00B9EC18F012C08CF113C08DF114C08EF179
:1019CE0015C08FF1000E066E000E076E400E086EEB
:1019DE00400E096E8CC102F08DC103F08EC104F071
:1019EE008FC105F07AEC1AF002C058F103C059F11C
:1019FE0004C05AF105C05BF158C102F059C103F0A1
:101A0E005AC104F05BC105F04CC106F04DC107F0A0
:101A1E004EC108F04FC109F07AEC1AF002C068F11D
:101A2E0003C069F104C06AF105C06BF168C1B8F179
:101A3E0069C1B9F16AC1BAF16BC1BBF1B8C190F11C
:101A4E00B9C191F1BAC192F1BBC193F1000E01017E
:101A5E009015B86FF00E9115B96FFF0E9215BA6F03
:101A6E00FF0E9315BB6FB8C168F1B9C169F1BAC168
:101A7E006AF1BBC16BF1000E066E000E076E400ED2
:101A8E00086EC00E096E68C102F069C103F06AC12A
:101A9E0004F06BC105F07AEC1AF002C03CF103C001
:101AAE003DF104C03EF105C03FF18CC12FF08DC158
:101ABE0030F08EC131F08FC132F03CC12BF03DC100
:101ACE002CF03EC12DF03FC12EF0D7EC1FF02BC0F5
:101ADE0040F12CC041F12DC042F12EC043F14CC15A
:101AEE002BF04DC12CF04EC12DF04FC12EF040C148
:101AFE002FF041C130F042C131F043C132F0D7EC8A
:101B0E001FF02BC034F12CC035F12DC036F12EC094
:101B1E0037F16CC112F06DC113F06EC114F06FC1CC
:101B2E0015F068C116F069C117F06AC118F06BC1E3
:101B3E0019F0B9EC18F012C074F113C075F114C09D
:101B4E0076F115C077F168C116F069C117F06AC158
:101B5E0018F06BC119F030C112F031C113F032C15F
:101B6E0014F033C115F0B9EC18F012C002F013C026
:101B7E0003F014C004F015C005F05CC116F05DC191
:101B8E0017F05EC118F05FC119F034C112F035C103
:101B9E0013F036C114F037C115F0B9EC18F012C0BD
:101BAE0006F013C007F014C008F015C009F07AEC67
:101BBE001AF002C078F103C079F104C07AF105C0C1
:101BCE007BF174C102F075C103F076C104F077C1E8
:101BDE0005F078C106F079C107F07AC108F07BC133
:101BEE0009F07AEC1AF002C09CF103C09DF104C01A
:101BFE009EF105C09FF19CC1B8F19DC1B9F19EC186
:101C0E00BAF19FC1BBF1B8C190F1B9C191F1BAC19E
:101C1E0092F1BBC193F1000E01019015B86FF00E59
:101C2E009115B96FFF0E9215BA6FFF0E9315BB6F1C
:101C3E00B8C19CF1B9C19DF1BAC19EF1BBC19FF172
:101C4E0074C12FF075C130F076C131F077C132F02A
:101C5E009CC12BF09DC12CF09EC12DF09FC12EF08A
:101C6E00D7EC1FF02BC094F12CC095F12DC096F13E
:101C7E002EC097F178C12BF079C12CF07AC12DF0DE
:101C8E007BC12EF094C12FF095C130F096C131F08A
:101C9E0097C132F0D7EC1FF02BC064F12CC065F168
:101CAE002DC066F12EC067F19CC112F09DC113F0DC
:101CBE009EC114F09FC115F0000E166E400E176EE9
:101CCE00760E186E3F0E196EB9EC18F012C020F198
:101CDE0013C021F114C022F115C023F14F0E166E60
:101CEE00380E176E760E186E3F0E196E64C112F016
:101CFE0065C113F066C114F067C115F0B9EC18F0A8
:101D0E0012C006F013C007F014C008F015C009F099
:101D1E00C60E166E230E176EF60E186EB80E196ED0
:101D2E009CC112F09DC113F09EC114F09FC115F01D
:101D3E00B9EC18F012C002F013C003F014C004F096
:101D4E0015C005F07AEC1AF002C058F103C059F133
:101D5E0004C05AF105C05BF158C102F059C103F03D
:101D6E005AC104F05BC105F0A0C169F0A1C16AF0CF
:101D7E00D89069366A36D89069366A36010E69246B
:101D8E00F66E060E6A20F76E0900FFFFF5CF06F01D
:101D9E000900FFFFF5CF07F00900FFFFF5CF08F0B0
:101DAE000A00FFFFF5CF09F07AEC1AF002C024F119
:101DBE0003C025F104C026F105C027F17CC102F055
:101DCE007DC103F07EC104F07FC105F0010E17EC5A
:101DDE0000F002C0B0F103C0B1F104C0B2F105C011
:101DEE00B3F124C106F025C107F026C108F027C1C2
:101DFE0009F020C102F021C103F022C104F023C179
:101E0E0005F07AEC1AF002C058F103C059F104C083
:101E1E005AF105C05BF1A0C169F0A1C16AF0D8907A
:101E2E0069366A36D89069366A36090E6924F66EB6
:101E3E00060E6A20F76E0900FFFFF5CF06F00900C7
:101E4E00FFFFF5CF07F00900FFFFF5CF08F00A00FE
:101E5E00FFFFF5CF09F058C102F059C103F05AC186
:101E6E0004F05BC105F07AEC1AF002C008F103C071
:101E7E0009F104C00AF105C00BF108C102F009C155
:101E8E0003F00AC104F00BC105F0B0C106F0B1C1F8
:101E9E0007F0B2C108F0B3C109F07AEC1AF002C033
:101EAE0080F103C081F104C082F105C083F180C1CD
:101EBE00B8F181C1B9F182C1BAF183C1BBF1B8C128
:101ECE0090F1B9C191F1BAC192F1BBC193F1000E7B
:101EDE0001019015B86FF00E9115B96FFF0E9215A6
:101EEE00BA6FFF0E9315BB6FB8C180F1B9C181F106
:101EFE00BAC182F1BBC183F1B0C12FF0B1C130F0D4
:101F0E00B2C131F0B3C132F080C12BF081C12CF0DF
:101F1E0082C12DF083C12EF0D7EC1FF02BC094F1AF
:101F2E002CC095F12DC096F12EC097F1A0C169F08D
:101F3E00A1C16AF0D89069366A36D89069366A3689
:101F4E00090E6924F66E060E6A20F76E0900FFFF71
:101F5E00F5CF2FF00900FFFFF5CF30F00900FFFF9E
:101F6E00F5CF31F00A00FFFFF5CF32F094C12BF020
:101F7E0095C12CF096C12DF097C12EF0D7EC1FF025
:101F8E002BC040F12CC041F12DC042F12EC043F1C7
:101F9E0020C12FF021C130F022C131F023C132F027
:101FAE0040C12BF041C12CF042C12DF043C12EF0A7
:101FBE00D7EC1FF02BC00CF12CC00DF12DC00EF183
:101FCE002EC00FF124C12BF025C12CF026C12DF00F
:101FDE0027C12EF00CC12FF00DC130F00EC131F023
:101FEE000FC132F0D7EC1FF0FFFF2BC01CF12CC03D
:101FFE001DF12DC01EF12EC01FF165C0B8F166C0D7
:10200E00B9F167C0BAF168C0BBF1B8C190F1B9C1FE
:10201E0091F1BAC192F1BBC193F1000E010190157D
:10202E00B86FF00E9115B96FFF0E9215BA6FFF0EC5
:10203E009315BB6FB8C128F1B9C129F1BAC12AF104
:10204E00BBC12BF180C116F081C117F082C118F00F
:10205E0083C119F028C12FF029C130F02AC131F007
:10206E002BC132F065C02BF066C02CF067C02DF08E
:10207E0068C02EF0D7EC1FF02BC012F02CC013F05E
:10208E002DC014F02EC015F0B9EC18F012C010F1DE
:10209E0013C011F114C012F115C013F110C102F0EA
:1020AE0011C103F012C104F013C105F01CC116F0EA
:1020BE001DC117F01EC118F01FC119F065C012F036
:1020CE0066C013F067C014F068C015F0B9EC18F0D4
:1020DE0012C006F013C007F014C008F015C009F0C6
:1020EE007AEC1AF002C064F103C065F104C066F127
:1020FE0005C067F128C112F029C113F02AC114F0EE
:10210E002BC115F080C116F081C117F082C118F0F5
:10211E0083C119F0B9EC18F012C09CF113C09DF1F7
:10212E0014C09EF115C09FF164C102F065C103F0A9
:10213E0066C104F067C105F09CC106F09DC107F0B1
:10214E009EC108F09FC109F07AEC1AF002C0B4F1FA
:10215E0003C0B5F104C0B6F105C0B7F1B4C1B8F112
:10216E00B5C1B9F1B6C1BAF1B7C1BBF1B8C1ACF1E5
:10217E00B9C1ADF1BAC1AEF1BBC1AFF10101AFBF93
:10218E0037D0AC05000EAD59000EAE59430EAF5907
:10219E00D8A02ED0CA0E166EF20E176E490E186EFD
:1021AE00710E196E88C112F089C113F08AC114F034
:1021BE008BC115F0B9EC18F012C0A4F113C0A5F143
:1021CE0014C0A6F115C0A7F1A4C112F0A5C113F059
:1021DE00A6C114F0A7C115F0CA0E166EF20E176E38
:1021EE00490E186E710E196EB9EC18F080EF16F0DC
:1021FE00FFFF430EAF19AC11AD11AE11D8A466D0CE
:10220E009CC12FF09DC130F09EC131F09FC132F0C4
:10221E00B4C12BF0B5C12CF0B6C12DF0B7C12EF064
:10222E00D7EC1FF02BC04CF02CC04DF02DC04EF053
:10223E002EC04FF03C0E066EAA0E076E380E086EBC
:10224E00330E096E64C102F065C103F066C104F07D
:10225E0067C105F07AEC1AF002C050F003C051F0DD
:10226E0004C052F005C053F03DEC01F0D8B0D2D00E
:10227E00CA0E166EF20E176E490E186E710E196E8C
:10228E0088C112F089C113F08AC114F08BC115F008
:10229E00B9EC18F012C0A4F113C0A5F114C0A6F148
:1022AE0015C0A7F1A4C112F0A5C113F0A6C114F078
:1022BE00A7C115F0CA0E166EF20E176E490E186EE5
:1022CE00710E196EB9EC18F080EF16F0FFFFFF0ECD
:1022DE00AC15696EFF0EAD156A6EFF0EAE156B6E08
:1022EE007F0EAF156C6E6CBE37D06904000E6A5847
:1022FE00160E6B58430E6C58D8A02ED0600E166E6C
:10230E00420E176EA20E186E0D0E196E88C112F0C7
:10231E0089C113F08AC114F08BC115F0B9EC18F015
:10232E0012C0A4F113C0A5F114C0A6F115C0A7F1F7
:10233E00A4C112F0A5C113F0A6C114F0A7C115F0E7
:10234E00600E166E420E176EA20E186E0D0E196EE0
:10235E00B9EC18F080EF16F0FFFF160EAE195AE129
:10236E00C30EAF19AC11AD11D8A454D09CC12FF02F
:10237E009DC130F09EC131F09FC132F0B4C12BF03F
:10238E00B5C12CF0B6C12DF0B7C12EF0D7EC1FF0B1
:10239E002BC04CF02CC04DF02DC04EF02EC04FF087
:1023AE0064C150F065C151F066C152F067C153F07F
:1023BE003DEC01F0D8A02ED0600E166E420E176EB8
:1023CE00A20E186E0D0E196E88C112F089C113F08F
:1023DE008AC114F08BC115F0B9EC18F012C0A4F13B
:1023EE0013C0A5F114C0A6F115C0A7F1A4C112F037
:1023FE00A5C113F0A6C114F0A7C115F0600E166E9C
:10240E00420E176EA20E186E0D0E196EB9EC18F064
:10241E0080EF16F0FFFFFF0E0101AC152C6FFF0EC3
:10242E00AD152D6FFF0EAE152E6F7F0EAF152F6FE4
:10243E00170E696E2CC16AF02DC16BF02EC16CF0B7
:10244E002FC16DF0FFFF696601D008D0FFFF6D341C
:10245E006D326C326B326A32692EF4D7FFFF810E09
:10246E006A240101A06FFF0E6B20A16FFF0E6C207E
:10247E00A26FFF0E6D20A36F000E7C6F000E7D6F9E
:10248E00000E7E6F000E7F6F2FBFE5D02C05000E65
:10249E002D59000E2E593F0E2F59D8A0DCD0A0C1B9
:1024AE0069F0010E6926000E6A6E000E6B6E800ECC
:1024BE006C6E000E6D6EFFFF696601D008D0FFFFD7
:1024CE006D346D326C326B326A32692EF4D7FFFF87
:1024DE000101AC516A247C6FAD516B207D6FAE5102
:1024EE006C207E6FAF516D207F6F810E696EFF0E77
:1024FE006A6EFF0E6B6EFF0E6C6E170E6D6E7CC1EC
:10250E006EF07DC16FF07EC170F07FC171F0FFFF84
:10251E006D6601D008D0FFFF7134713270326F32A8
:10252E006E326D2EF4D7FFFF6E5069240101A06F3D
:10253E00000E6A20A16F000E6B20A26F000E6C20A1
:10254E00A36FA0C169F0FF0E6A6EFF0E6B6E7F0E59
:10255E006C6E000E6D6EFFFF696601D008D0FFFF36
:10256E006D346D326C326B326A32692EF4D7FFFFE6
:10257E006A1C6E6E6B1C6F6E6C1C706E6D1C716EB9
:10258E0001017C516E14B86F7D516F14B96F7E517D
:10259E007014BA6F7F517114BB6FB8C1B0F1B9C16D
:1025AE00B1F1BAC1B2F1BBC1B3F1A0511708696E56
:1025BE00FF0E7C156A6EFF0E7D156B6E7F0E7E15FF
:1025CE006C6E000E7F156D6E000E6A106E6E000E34
:1025DE006B106F6E800E6C10706E000E6D10716E43
:1025EE00FFFF696601D008D0FFFF7134713270327F
:1025FE006F326E32692EF4D7FFFF6EC07CF16FC062
:10260E007DF170C07EF171C07FF10101AFAF08D0D6
:10261E007F1F7E1F7D1F7C6D000E7D237E237F23FB
:10262E00FFFF9CC12BF09DC12CF09EC12DF09FC1D0
:10263E002EF0B0C12FF0B1C130F0B2C131F0B3C144
:10264E0032F0D7EC1FF02BC09CF12CC09DF12DC0A9
:10265E009EF12EC09FF1FFFF64C102F065C103F031
:10266E0066C104F067C105F09CC106F09DC107F07C
:10267E009EC108F09FC109F07AEC1AF002C0B0F1C9
:10268E0003C0B1F104C0B2F105C0B3F1B0C1B8F1ED
:10269E00B1C1B9F1B2C1BAF1B3C1BBF1B8C190F1D8
:1026AE00B9C191F1BAC192F1BBC193F1000E010112
:1026BE009015B86F800E9115B96FFF0E9215BA6F07
:1026CE00FF0E9315BB6FB8C1B0F1B9C1B1F1BAC16C
:1026DE00B2F1BBC1B3F1B0C112F0B1C113F0B2C1CE
:1026EE0014F0B3C115F0000E166E720E176E310E89
:1026FE00186E3F0E196EB9EC18F012C074F113C0BB
:10270E0075F114C076F115C077F19CC12FF09DC103
:10271E0030F09EC131F09FC132F0B0C12BF0B1C18B
:10272E002CF0B2C12DF0B3C12EF0D7EC1FF02BC0A0
:10273E0094F12CC095F12DC096F12EC097F1180E84
:10274E00166E720E176E310E186E3F0E196E94C104
:10275E002FF095C130F096C131F097C132F064C1BF
:10276E002BF065C12CF066C12DF067C12EF0D7ECB1
:10277E001FF02BC012F02CC013F02DC014F02EC081
:10278E0015F0B9EC18F012C014F113C015F114C005
:10279E0016F115C017F114C102F015C103F016C1E0
:1027AE0004F017C105F08C0E166EBE0E176EBF0E1E
:1027BE00186E350E196EB0C112F0B1C113F0B2C160
:1027CE0014F0B3C115F0B9EC18F012C006F013C036
:1027DE0007F014C008F015C009F07AEC1AF002C028
:1027EE0078F103C079F104C07AF105C07BF174C1B0
:1027FE0002F075C103F076C104F077C105F078C11F
:10280E0006F079C107F07AC108F07BC109F07AECC5
:10281E001AF002C0B4F103C0B5F104C0B6F105C0A0
:10282E00B7F174C12FF075C130F076C131F077C1B8
:10283E0032F0B4C12BF0B5C12CF0B6C12DF0B7C13A
:10284E002EF0D7EC1FF02BC094F12CC095F12DC0BB
:10285E0096F12EC097F178C12BF079C12CF07AC188
:10286E002DF07BC12EF094C12FF095C130F096C1A2
:10287E0031F097C132F0D7EC1FF02BC044F12CC0D1
:10288E0045F12DC046F12EC047F1B4C112F0B5C1CD
:10289E0013F0B6C114F0B7C115F0B4C116F0B5C13E
:1028AE0017F0B6C118F0B7C119F0B9EC18F012C094
:1028BE00B0F113C0B1F114C0B2F115C0B3F10E0EE8
:1028CE00066EEA0E076EDD0E086EB50E096E4C0E24
:1028DE00166EBB0E176E310E186E330E196EB0C11A
:1028EE0012F0B1C113F0B2C114F0B3C115F0B9ECCE
:1028FE0018F012C002F013C003F014C004F015C09B
:10290E0005F07AEC1AF002C0A4F103C0A5F104C0E0
:10291E00A6F105C0A7F1550E066EB30E076E8A0E10
:10292E00086E380E096EB0C116F0B1C117F0B2C103
:10293E0018F0B3C119F0A4C112F0A5C113F0A6C1CD
:10294E0014F0A7C115F0B9EC18F012C002F013C0C4
:10295E0003F014C004F015C005F07AEC1AF002C0B2
:10296E0054F103C055F104C056F105C057F1610E84
:10297E00066E0B0E076E360E086EBB0E096EB0C1DC
:10298E0016F0B1C117F0B2C118F0B3C119F054C1AD
:10299E0012F055C113F056C114F057C115F0B9EC31
:1029AE0018F012C002F013C003F014C004F015C0EA
:1029BE0005F07AEC1AF002C048F103C049F104C0E8
:1029CE004AF105C04BF1AB0E066EAA0E076E2A0E2B
:1029DE00086E3E0E096EB0C116F0B1C117F0B2C14D
:1029EE0018F0B3C119F048C112F049C113F04AC131
:1029FE0014F04BC115F0B9EC18F012C002F013C070
:102A0E0003F014C004F015C005F07AEC1AF002C001
:102A1E0038F103C039F104C03AF105C03BF1B4C13D
:102A2E002BF0B5C12CF0B6C12DF0B7C12EF0B0C150
:102A3E0016F0B1C117F0B2C118F0B3C119F038C118
:102A4E0012F039C113F03AC114F03BC115F0B9ECD4
:102A5E0018F012C02FF013C030F014C031F015C0B2
:102A6E0032F0D7EC1FF02BC080F12CC081F12DC0BD
:102A7E0082F12EC083F1000E066E000E076E000E60
:102A8E00086EC00E096E80C102F081C103F082C1D2
:102A9E0004F083C105F07AEC1AF002C037F003C0DF
:102AAE0038F004C039F005C03AF080C116F081C18B
:102ABE0017F082C118F083C119F0B4C112F0B5C17C
:102ACE0013F0B6C114F0B7C115F0B9EC18F012C07E
:102ADE0033F013C034F014C035F015C036F07EEC70
:102AEE001DF033C03CF134C03DF135C03EF136C06F
:102AFE003FF144C106F045C107F046C108F047C199
:102B0E0009F044C116F045C117F046C118F047C18F
:102B1E0019F0B4C112F0B5C113F0B6C114F0B7C1BB
:102B2E0015F0B9EC18F012C002F013C003F014C087
:102B3E0004F015C005F07AEC1AF002C018F103C0CB
:102B4E0019F104C01AF105C01BF13CC12BF03DC1B7
:102B5E002CF03EC12DF03FC12EF018C12FF019C13F
:102B6E0030F01AC131F01BC132F0D7EC1FF02BC080
:102B7E004CF12CC04DF12DC04EF12EC04FF1B4C111
:102B8E002FF0B5C130F0B6C131F0B7C132F04CC143
:102B9E002BF04DC12CF04EC12DF04FC12EF0D7ECC5
:102BAE001FF02BC094F12CC095F12DC096F12EC0C4
:102BBE0097F1000E2B6E000E2C6E800E2D6E3F0EBA
:102BCE002E6E94C12FF095C130F096C131F097C1A1
:102BDE0032F0D7EC1FF02BC0B4F12CC0B5F12DC0E4
:102BEE00B6F12EC0B7F1B4C1B8F1B5C1B9F1B6C1E5
:102BFE00BAF1B7C1BBF1B8C1ACF1B9C1ADF1BAC14F
:102C0E00AEF1BBC1AFF17CC169F07DC16AF07EC18E
:102C1E006BF07FC16CF0170EFFFFD89069366A36E5
:102C2E006B366C36E82EF8D769500101AC276A5026
:102C3E00AD236B50AE236C50AF23170E696EACC133
:102C4E006AF0ADC16BF0AEC16CF0AFC16DF0FFFFBD
:102C5E00696601D008D0FFFF6D346D326C326B3275
:102C6E006A32692EF4D7FFFF6DBE07D06D506C101F
:102C7E006B101BE16A04D8B018D0FFFFB4C12BF063
:102C8E00B5C12CF0B6C12DF0B7C12EF07CC12FF01E
:102C9E007DC130F0DEEC1EF02BC0B4F12CC0B5F1CE
:102CAE002DC0B6F12EC0B7F111D0FFFFACC1B8F1F7
:102CBE00ADC1B9F1AEC1BAF1AFC1BBF1B8C1B4F19A
:102CCE00B9C1B5F1BAC1B6F1BBC1B7F1FFFF88C149
:102CDE0012F089C113F08AC114F08BC115F0B4C182
:102CEE0016F0B5C117F0B6C118F0B7C119F0B9ECAE
:102CFE0018F0FFFF12C061F013C062F014C063F051
:102D0E0015C064F0FFFF1200FFFFFFFF58C08CF0EC
:102D1E0059C08DF05AC08EF05BC08FF08CC0A4F0FD
:102D2E008DC0A5F08EC0A6F08FC0A7F0000E0001DA
:102D3E00A4155C6E000EA5155D6E800EA6155E6E5A
:102D4E007F0EA7155F6E800E5E1833E17F0E5F1843
:102D5E005C105D10D8A42DD058C016F059C017F0D5
:102D6E005AC018F05BC019F058C012F059C013F0D9
:102D7E005AC014F05BC015F0B9EC18F012C002F096
:102D8E0013C003F014C004F015C005F058C006F0CF
:102D9E0059C007F05AC008F05BC009F07AEC1AF07F
:102DAE0002C058F003C059F004C05AF005C05BF0E1
:102DBE00D6D1FFFFA7BF07D0A751A611A51135E1A8
:102DCE00A405D8B032D0FFFFFF0EA4155C6EFF0E27
:102DDE00A5155D6EFF0EA6155E6E7F0EA7155F6EB6
:102DEE005C505D105E105F10D8A409D058C058F02A
:102DFE0059C059F05AC05AF05BC05BF0B0D1FFFF1A
:102E0E00A7AF13D0000EC76F210EC66F850E026ED0
:102E1E00060E036ED3EC3FF002C058F003C059F01B
:102E2E0004C05AF005C05BF09AD1FFFF170E5C6E1E
:102E3E00A4C05DF0A5C05EF0A6C05FF0A7C060F0B4
:102E4E00FFFF5C6601D008D0FFFF603460325F3256
:102E5E005E325D325C2EF4D7FFFF5DC09CF05EC02B
:102E6E009DF05FC09EF060C09FF000019C519D11CF
:102E7E009E119F11D8A42CD0000E886F000E896F62
:102E8E00000E8A6F000E8B6F0CD0FFFFD890A43708
:102E9E00A537A637A737010E8827000E89238A2368
:102EAE008B23FFFFA6AFF1D7FF0E88255C6EFF0EBA
:102EBE0089215D6EFF0E8A215E6EFF0E8B215F6E85
:102ECE005C509C5F5D509D5B5E509E5B5F509F5B58
:102EDE00FFFF810E9C27FF0E9D23FF0E9E23FF0EEC
:102EEE009F23FF0EA4155C6EFF0EA5155D6E7F0E63
:102EFE00A6155E6E000EA7155F6E000E5C10A46F19
:102F0E00000E5D10A56F800E5E10A66F000E5F1096
:102F1E00A76F9CA108D0A451A427A551A523A65103
:102F2E00A623A751A723FFFF9F359F339E339D33C3
:102F3E009C33A451A427A551A523A651A623A7517E
:102F4E00A723000E846F000E856F000E866F000E95
:102F5E00876F84C090F085C091F086C092F087C0D4
:102F6E0093F0000EA06F000EA16F000EA26F010E67
:102F7E00A36F45D0FFFFA0518425946FA1518521E9
:102F8E00956FA2518621966FA3518721976F945109
:102F9E00A45D9551A5599651A659A751800A5C6E0C
:102FAE009751800A5C58D8A01CD0A0519425846FEC
:102FBE00A1519521856FA2519621866FA35197211C
:102FCE00876F9451A45F9551A55B9651A65B97515F
:102FDE00A75BA0519027A1519123A2519223A351F7
:102FEE009323FFFFA451A427A551A523A651A623E1
:102FFE00A751A723D890A333A233A133A033FFFF49
:10300E00A051A111A211A311D8A4B4D7A451A511F6
:10301E00A611A711D8B457D0000E986F000E996F55
:10302E00800E9A6F3F0E9B6F98C04CF099C04DF07A
:10303E009AC04EF09BC04FF0000E506E000E516EB7
:10304E00800E526E3F0E536E3DEC01F0D8A03BD079
:10305E00000E0001986F000E996F800E9A6F3F0E52
:10306E009B6F000E4C6E000E4D6E800E4E6E3F0E20
:10307E004F6E98C050F099C051F09AC052F09BC05C
:10308E0053F03DEC01F0D8B007D0020E00019027AE
:10309E00000E9123922315D0FFFF010E0001901513
:1030AE005C6E000E91155D6E000E92155E6E000E3A
:1030BE0093155F6E5C5090275D5091235E50922366
:1030CE005F50FFFF9323FFFF90C05CF091C05DF057
:1030DE0092C05EF093C05FF05F345F325E325D325D
:1030EE005C32000E5C240001A46F000E5D20A56F03
:1030FE00000E5E20A66F3F0E5F20A76F9CC05CF097
:10310E009DC05DF09EC05EF09FC05FF0170EFFFF8A
:10311E00D8905C365D365E365F36E82EF8D75C505A
:10312E00A4275D50A5235E50A6235F50A723A4C0FD
:10313E008CF0A5C08DF0A6C08EF0A7C08FF08CC00D
:10314E0098F08DC099F08EC09AF08FC09BF098C009
:10315E0058F099C059F09AC05AF09BC05BF0FFFF2F
:10316E001200FFFFFFFF1550800B1E6E1550152429
:10317E00246E14BE24802450D8B40ED02428D8A493
:10318E0008D0000E126E000E136E000E146E000E9E
:10319E00156EFFFF148E09D0FFFF000E126E000E8B
:1031AE00136E000E146E000E156EFFFF1950800B7D
:1031BE001E1A19501924236E18BE23802350D8B41A
:1031CE000ED02328D8A408D0000E166E000E176E4F
:1031DE00000E186E000E196EFFFF188E09D0FFFF3D
:1031EE00000E166E000E176E000E186E000E196E83
:1031FE00FFFF2350D8B403D02450D8A40AD0FFFF29
:10320E00000E126E000E136E000E146E000E156E72
:10321E0067D1FFFF18501202F3CF29F0F4CF2AF036
:10322E0029501F6E206A216A226A2A50256E266A4C
:10323E00276A286A17501302F3CF29F0F4CF2AF029
:10324E0029501F26000E2022212222222A50252616
:10325E00000E26222722282216501402F3CF29F020
:10326E00F4CF2AF029501F26000E202221222222DE
:10327E002A502526000E26222722282221C022F09F
:10328E0020C021F01FC020F01F6A16501302F3CF8A
:10329E0029F0F4CF2AF029501F262A502022000EA2
:1032AE002122000E222217501202F3CF29F0F4CF62
:1032BE002AF029501F262A502022000E2122000E0D
:1032CE00222221C022F020C021F01FC020F01F6A50
:1032DE0016501202F3CF29F0F4CF2AF029501F26F0
:1032EE002A502022000E2122000E222218501302F4
:1032FE00F3CF29F0F4CF2AF0295025262A50262282
:10330E00000E2722000E282217501402F3CF29F0A8
:10331E00F4CF2AF0295025262A502622000E2722E5
:10332E00000E282218501402F3CF29F0F4CF2AF001
:10333E0029501A6E2A501B6E1C6A1D6A1CC01DF085
:10334E001BC01CF01AC01BF01A6A1A5025261B50FF
:10335E0026221C5027221D5028221FC01AF020C0E2
:10336E001BF021C01CF022C01DF0190E06D0FFFF6D
:10337E00D8901D321C321B321A32FFFFE82EF7D7BF
:10338E001A5025261B5026221C5027221D5028225B
:10339E0021C022F020C021F01FC020F01F6A235050
:1033AE0024C01AF01B6A1A26000E1B22820E1A2443
:1033BE00296EFF0E1B202A6E10D0FFFFD8902536E7
:1033CE0026362736283622BE2580D8901F36203640
:1033DE00213622362906D8A02A06FFFF27AEEDD7C2
:1033EE00000E236E22AE19D0FF0E1F141A6EFF0EA2
:1033FE0020141B6EFF0E21141C6E7F0E22141D6EE8
:10340E001A501B101C101D10D8B404D0FFFF010E53
:10341E00236E03D0FFFF25B0F9D7FFFF2350D8B49A
:10342E001FD0010E2526000E26222722282228A094
:10343E0017D025C01AF026C01BF027C01CF028C0DC
:10344E001DF01D341D321C321B321A321AC025F0EB
:10345E001BC026F01CC027F01DC028F0294A2A2ABE
:10346E00FFFF2ABE0DD02A5003E12928D8A008D08C
:10347E00000E256E000E266E800E276E7F0E23D058
:10348E00FFFF2ABE05D02A500FE12904D8B00CD078
:10349E00FFFF000E256E000E266E000E276E000E2C
:1034AE00286E000E1E6E11D0FFFF29C024F0FF0EF5
:1034BE002516FF0E26167F0E2716000E281624B090
:1034CE00278ED8902430FFFF286EFFFF1E50281243
:1034DE0025C012F026C013F027C014F028C015F036
:1034EE00FFFF1200FFFFFFFF0550800B0E6E055011
:1034FE000524106E04BE10801050D8B40ED01028C3
:10350E00D8A408D0000E026E000E036E000E046EDC
:10351E00000E056EFFFF048E07D0FFFF000E026E39
:10352E00000E036E000E046EFFFF000E056E0950B6
:10353E00800B0F6E0E500F18D8A40E8C0950092454
:10354E000F6E08BE0F800F50D8B40ED00F28D8A41F
:10355E0008D0000E066E000E076E000E086E000EEE
:10356E00096EFFFF088E07D0FFFF000E066E000EDD
:10357E00076E000E086EFFFF000E096E10500F5CF6
:10358E00D8B023D00EAC02D0800E0E1AFFFF10C0A2
:10359E0011F00FC010F011C00FF002C011F006C0F4
:1035AE0002F011C006F003C011F007C003F011C005
:1035BE0007F004C011F008C004F011C008F005C0F7
:1035CE0011F009C005F011C009F0FFFF000E116ED9
:1035DE0010500FC00AF00B6A0A5E000E0B5A0BBE9B
:1035EE0031D00B5004E11A0E0A5CD8A02BD0025039
:1035FE00031004100510D8B402D0010E02D0FFFF44
:10360E00000EFFFF116E000E026E000E036E000E16
:10361E00046E000E056E0FC010F019D0FFFF11A042
:10362E0005D0D89011300109116E03D0FFFFD8904C
:10363E001132FFFF02B0118E05340532043203320F
:10364E000232102AFFFF0F50105CD8A0E7D7FFFF01
:10365E000EBC21D01050D8B465D0065002260750AB
:10366E000322085004220950052205A07BD011A088
:10367E0005D0D89011300109116E03D0FFFFD890FC
:10368E001132FFFF02B0118E0534053204320332BF
:10369E000232102A67D0FFFF0650025C0750035813
:1036AE00085004580550800A0A6E0950800A0A58BC
:1036BE00D8B025D00250065C0A6E035007580B6E28
:1036CE00045008580C6E055009580D6EFF0E0A2452
:1036DE00026EFF0E0B20036EFF0E0C20046EFF0E0B
:1036EE000D20056E800E0E1A116C1150D8A410D03C
:1036FE00010E0226000E03220422052209D0FFFF2E
:10370E000650025E0750035A0850045A0950055AD3
:10371E00FFFF0250031004100510D8A420D0115042
:10372E00D8A41DD0FFFF000E026E000E036E000E19
:10373E00046E000E056E76D0FFFFD890023603366B
:10374E000436053611BE028011A002D0D88002D0F8
:10375E00FFFFD890FFFF11361050D8A41006FFFFC0
:10376E0004AEEAD7FFFF000E0F6E11AE0DD011C0E2
:10377E000AF07F0E0A16D8B404D0FFFF010E0F6EAA
:10378E0003D0FFFF02B0F9D7FFFF0F50D8B420D0FF
:10379E00010E0226000E03220422052205A018D0D7
:1037AE0002C00AF003C00BF004C00CF005C00DF00F
:1037BE000D340D320C320B320A320AC002F00BC03D
:1037CE0003F00CC004F00DC005F01028D8A4102A88
:1037DE00FFFF1028D8B403D01050D8A40ED0FFFF8E
:1037EE00000E026E000E036E000E046E000E056ECD
:1037FE001050D8A402D0000E0E6EFFFF10A002D003
:10380E00048E02D0FFFF049EFFFFD8901030056E8D
:10381E000EBE058E02C002F003C003F004C004F019
:10382E0005C005F0FFFF1200FFFFFFFF000E0001B5
:10383E00BA6FA9AF10D02D0EAEEC3FF0A8C002F0BB
:10384E00A9C003F0FF0E056E0468EAEC02F002C098
:10385E00A8F003C0A9F0FFFFA8C0AFF0A9C0B0F058
:10386E0003D0FFFF0001BA2BFFFF0001BA51026E19
:10387E00036A046A056A000E17EC00F002C0B6F087
:10388E0003C0B7F004C0B8F005C0B9F0B6C065F01B
:10389E00B7C066F0B8C067F0B9C068F0000E616ED0
:1038AE00000E626E200E636E410E646E47EC03F0E6
:1038BE0061C0B1F062C0B2F063C0B3F064C0B4F0E6
:1038CE00B1C037F0B2C038F0B3C039F0B4C03AF07E
:1038DE00AFC002F0B0C003F0000E03BEFF0E046EC8
:1038EE00056E010E17EC00F002C033F003C034F089
:1038FE0004C035F005C036F07EEC1DF033C04CF040
:10390E0034C04DF035C04EF036C04FF0000E506E44
:10391E00000E516E800E526E3F0E536E3DEC01F056
:10392E00D8B09FD70001AA51D8B405D0BA51AA5D1C
:10393E00D8B0AAC0BAF0FFFFBA05BB6FFFFFBB51EC
:10394E00D8B4CED0BB51026E036A046A056A000E6B
:10395E0017EC00F002C0B6F003C0B7F004C0B8F028
:10396E0005C0B9F0B6C065F0B7C066F0B8C067F074
:10397E00B9C068F0000E616E000E626E200E636EAE
:10398E00410E646E47EC03F061C0B1F062C0B2F05C
:10399E0063C0B3F064C0B4F0B1C037F0B2C038F059
:1039AE00B3C039F0B4C03AF0A8C002F0A9C003F019
:1039BE00000E03BEFF0E046E056E010E17EC00F036
:1039CE0002C033F003C034F004C035F005C036F049
:1039DE007EEC1DF033C072F034C073F035C074F05D
:1039EE0036C075F0ADEC01F072500001B56FB551F7
:1039FE00300FAEEC3FF00001BB51026E036A046A59
:103A0E00056A000E17EC00F002C0B6F003C0B7F066
:103A1E0004C0B8F005C0B9F0B6C065F0B7C066F026
:103A2E00B8C067F0B9C068F0000E616E000E626E2D
:103A3E00200E636E410E646E47EC03F061C0ABF076
:103A4E0062C0ACF063C0ADF064C0AEF0ABC016F0B7
:103A5E00ACC017F0ADC018F0AEC019F00001B551F2
:103A6E00026E036A046A056A010E17EC00F002C0CA
:103A7E0012F003C013F004C014F005C015F0B9EC39
:103A8E0018F012C02FF013C030F014C031F015C072
:103A9E0032F0A8C002F0A9C003F0000E03BEFF0E64
:103AAE00046E056E010E17EC00F002C02BF003C081
:103ABE002CF004C02DF005C02EF0D7EC1FF02BC05B
:103ACE0072F02CC073F02DC074F02EC075F0ADECFA
:103ADE0001F072C0A8F073C0A9F00001BB072ED789
:103AEE00FFFFA851300FAEEC3FF01200FFFFFFFFBB
:103AFE003650800B436E365036244A6E35BE4A80A1
:103B0E004A50D8B40ED04A28D8A408D0000E336E2E
:103B1E00000E346E000E356E000E366EFFFF358EC3
:103B2E0007D0FFFF000E336E000E346E000E356EA2
:103B3E00FFFF000E366E3A50800B431A3A503A246D
:103B4E004B6E39BE4B804B50D8B40ED04B28D8A4F8
:103B5E0008D0000E376E000E386E000E396E000E55
:103B6E003A6EFFFF398E07D0FFFF000E376E000E44
:103B7E00386E000E396EFFFF000E3A6E3750381059
:103B8E0039103A10D8A418D0000E336E000E346ED1
:103B9E00000E356E000E366E800E35127F0E36120A
:103BAE00FFFF4350361233C033F034C034F035C00B
:103BBE0035F036C036F0F8D0FFFF4A50D8A409D001
:103BCE00000E336E000E346E000E356E000E366E25
:103BDE00EBD0FFFF4B504AC03BF03C6A3B5E000E01
:103BEE003C5A7F0E3B24446E000E3C20456E33C083
:103BFE003FF034C040F035C041F036C042F0000E08
:103C0E00336E000E346E000E356E000E366E000EE4
:103C1E00466E000E476E000E486E000E496E000E88
:103C2E004B6E2BD0FFFF4B50D8B411D0D8903F36EF
:103C3E00403641364236D8903336343635363636FF
:103C4E0049BE3380D8904636473648364936FFFF50
:103C5E0037503F5C38504058395041583A504258CE
:103C6E00D8A009D0498C37503F5E3850405A395051
:103C7E00415A3A50425AFFFF4B2AFFFF190E4B642E
:103C8E00D1D73F50401041104210D8B412D04680C8
:103C9E0010D0FFFFD890333634363536363649BE1F
:103CAE003380D89046364736483649364406D8A033
:103CBE004506FFFF35AEEDD7000E4B6E49AE19D05F
:103CCE00FF0E46143B6EFF0E47143C6EFF0E48145B
:103CDE003D6E7F0E49143E6E3B503C103D103E1023
:103CEE00D8B404D0FFFF010E4B6E03D0FFFF33B0EC
:103CFE00F9D7FFFF4B50D8B41FD0010E3326000E5C
:103D0E0034223522362236A017D033C03BF034C0D1
:103D1E003CF035C03DF036C03EF03E343E323D32D2
:103D2E003C323B323BC033F03CC034F03DC035F04A
:103D3E003EC036F0444A452AFFFF45BE10D04550DE
:103D4E0003E14428D8A00BD0000E456E4468000E47
:103D5E00336E000E346E000E356E000E366EFFFFA3
:103D6E0045BE05D0455012E14404D8B00FD0FFFF38
:103D7E00000E456E000E446E000E336E000E346E55
:103D8E00000E356E000E366E000E436EFFFF44C001
:103D9E004AF04AA002D0358E02D0FFFF359EFFFFBB
:103DAE00D8904A30366EFCD6FFFF1200FFFFFFFFA1
:103DBE002BC039F02CC03AF02DC03BF02EC03CF099
:103DCE0030BE56D0305004E1800E2F5CD8A050D0BB
:103DDE0039C012F03AC013F03BC014F03CC015F0DD
:103DEE00000E166E000E176E000E186E7F0E196EF8
:103DFE00B9EC18F012C039F013C03AF014C03BF011
:103E0E0015C03CF0810E2F26FF0E302230BE8AD018
:103E1E00305004E1800E2F5CD8A084D039C012F04F
:103E2E003AC013F03BC014F03CC015F0000E166EF5
:103E3E00000E176E000E186E7F0E196EB9EC18F08C
:103E4E0012C039F013C03AF014C03BF015C03CF06C
:103E5E00810E2F26FF0E302230BE64D0305004E18A
:103E6E00800E2F5CD8A05ED0000E306E7F0E58D024
:103E7E00FFFF30AE57D0820E2F5CFF0E3058D8B0F9
:103E8E0051D039C012F03AC013F03BC014F03CC010
:103E9E0015F0000E166E000E176E800E186E0C0EBC
:103EAE00196EB9EC18F012C039F013C03AF014C004
:103EBE003BF015C03CF0660E2F26000E302230AEC1
:103ECE0031D0820E2F5CFF0E3058D8B02BD039C0B7
:103EDE0012F03AC013F03BC014F03CC015F0000EC7
:103EEE00166E000E176E800E186E0C0E196EB9EC53
:103EFE0018F012C039F013C03AF014C03BF015C0E0
:103F0E003CF0660E2F26000E302230AE0BD0820E05
:103F1E002F5CFF0E3058D8B005D0FF0E306E820EDB
:103F2E00FFFF2F6EFFFF7F0E2F24316E000E30200D
:103F3E00326E336A346A170EFFFFD890313632363E
:103F4E0033363436E82EF8D731C035F032C036F07D
:103F5E0033C037F034C038F035C012F036C013F02D
:103F6E0037C014F038C015F039C016F03AC017F04B
:103F7E003BC018F03CC019F0B9EC18F012C02BF091
:103F8E0013C02CF014C02DF015C02EF02BC02BF04A
:103F9E002CC02CF02DC02DF02EC02EF01200FFFFE5
:103FAE00FFFF000E2F1A000E301A000E311A800E6F
:103FBE00321A2BC002F02CC003F02DC004F02EC01C
:103FCE0005F02FC006F030C007F031C008F032C047
:103FDE0009F07AEC1AF002C02BF003C02CF004C0EA
:103FEE002DF005C02EF01200FFFFFFFF7E92110094
:023FFE00FFFFC3
:107F5C00FFFF026EFFFFACA2FDD702C0ADFF120007
:107F6C00FFFFFFFF92689668F00EC116C00EC1129B
:107F7C00C29EC28CC2801200FFFF0001C76BC66B91
:107F8C00C56BC46BC36BC26B7E907E92000EF86E99
:107F9C00060EF76E0001C5EF00F0FFFFFF0E066E38
:107FAC00FF0E076EFF0E086E7F0E096E06C002F004
:107FBC0007C003F008C004F009C005F01200FFFF71
:107FCC00FFFF0250031004100510D8B408D0000EA7
:107FDC00021A000E031A000E041A800E051AFFFF77
:107FEC0002C002F003C003F004C004F005C005F0A9
:047FFC001200FFFF71
:020000040020DA
:08000000FFFFFFFFFFFFFFFF00
:020000040030CA
:0E000000FF220F0EFF0185FF0FC00FE00F4023
:00000001FF
